:020000040800F2
:10400000000002202D6200085D6200085F62000867
:104010006162000863620008656200080000000039
:10402000000000000000000000000000D97B000834
:1040300069620008000000006D7C0008CD7C00086B
:104040006F6200086F6200086F6200086F6200080C
:104050006F6200086F6200086F6200086F620008FC
:104060006F6200086F6200086F6200086F620008EC
:104070006F6200086F6200086F6200086F620008DC
:104080006F6200086F6200086F6200086F620008CC
:104090006F6200086F6200086F6200086F620008BC
:1040A0006F6200086F6200086F6200086F620008AC
:1040B0006F6200086F6200086F6200086F6200089C
:1040C0006F6200086F6200086F6200086F6200088C
:1040D0006F6200086F6200086F6200086F6200087C
:1040E0006F6200086F6200086F6200086F6200086C
:1040F0006F6200086F6200086F6200086F6200085C
:104100006F6200086F6200086F6200086F6200084B
:104110006F6200086F6200086F6200086F6200083B
:104120006F6200086F6200086F6200086F6200082B
:104130006F62000800000000000000006F620008CD
:104140006F6200086F6200086F6200086F6200080B
:104150006F6200086F6200086F6200086F620008FB
:104160006F6200086F6200086F6200086F620008EB
:104170006F6200086F62000800000000000000008D
:104180006F6200086F62000810B5054C237833B9E0
:10419000044B13B10448AFF300800123237010BD1A
:1041A000D802002000000000C4F00008084B10B541
:1041B0001BB108480849AFF300800848036803B9F9
:1041C00010BD074B002BFBD0BDE81040184700BFC7
:1041D00000000000C4F00008DC020020D40200202F
:1041E00000000000154B002B08BF134B9D46A3F5A4
:1041F000803A00218B460F461348144A121A04F0E5
:10420000B2FE0F4B002B00D098470E4B002B00D076
:1042100098470020002104000D000D48002802D01E
:104220000C4804F05DFA04F0E5FD2000290002F0DE
:10423000BBFB04F06FFA00BF000008000000022082
:1042400000000000B96D0008D8020020A819002065
:10425000E1860008A98B00087047000008B50B4BE9
:104260001A6842F400721A601A6842F480621A6096
:104270001A6842F480721A60032000F073F90F206C
:1042800001F028F9FFF7E8FF002008BD003C0240DC
:10429000024A136801331360704700BFF402002024
:1042A000014B1868704700BFF402002070470000FF
:1042B00010B5044600287BD090F83D300BB9FFF7CD
:1042C000F5FF022384F83D303A4B5A6822F440321D
:1042D0005A60596862680A435A60236821695A68BB
:1042E00022F480725A605A6842EA01225A605A687F
:1042F00022F040725A605968A2680A435A609A686C
:1043000022F400629A609968E2680A439A609A68A7
:1043100022F070629A609968226B0A439A609A68E8
:1043200022F040529A609968E26A0A439A609A6859
:1043300022F002029A609A68A16942EA41029A60F8
:10434000626A6AB15A6842F400625A605A6822F49A
:1043500060425A60A26A5968013A41EA423202E078
:104360005A6822F400625A60DA6A22F47002DA6251
:10437000226AD96A013A41EA0252DA629A68E1692C
:1043800022F400729A609A6842EA41229A609A681E
:10439000616922F480629A609A6842EA81229A6096
:1043A00000200123206484F83C0084F83D3010BDD7
:1043B000012010BD0023014090F83C30012B2DD08E
:1043C000012380F83C3090F83D30222B0CBF322383
:1043D000122380F83D3003689A68D10704D5104A4B
:1043E0005268D2060FD00BE09A6842F001029A6040
:1043F00040F21D2200BF013A92B2002AFAD1EEE744
:10440000084A934205D1C26A1AB99A6842F08042BA
:104410009A60002380F83C301846704702207047AD
:10442000002301400020014070B504460D46FFF70F
:1044300037FF0646226813689B070FD4691CFAD021
:1044400035B90320002384F83D0084F83C3070BD6A
:10445000FFF726FF801BA842ECD9F2E794F83D3025
:10446000252B0CBF3523152384F83D30002070BD6B
:104470000368D86C7047000090F83C30012BF0B511
:1044800069D00C688D680123092C80F83C304FEA14
:10449000440203680CD92244DF681E3A072696407E
:1044A00027EA0606DE60DE6895403543DD600AE0F7
:1044B0001F6922440726964027EA06061E611E69E8
:1044C000954035431D614A68062A4FEA82010DD89E
:1044D0000A445D6B053A1F21914025EA01015963A9
:1044E000596B04FA02F20A435A631CE00C2A0DD8F5
:1044F0000A441D6B233A1F21914025EA01011963EB
:10450000196B04FA02F20A431A630CE00A44DD6AEA
:10451000413A1F21914025EA0101D962D96A04FA82
:1045200002F20A43DA620D4A93420FD1122C05D1EE
:10453000D2F8043343F48003C2F80433103C012C56
:1045400004D8074A536843F400035360002380F8FB
:104550003C301846F0BD0220F0BD00BF00200140F5
:1045600000230140074AD36823F4E0631B041B0CBB
:1045700043F0BF6343F4003300F0070043EA002335
:10458000D360704700ED00E0BFF34F8F0449054B47
:10459000CA6802F4E0621343CB60BFF34F8FFEE7BB
:1045A00000ED00E00400FA052DE9F0410F6800225B
:1045B0000123934003EA07059D4240F0CC804C68FC
:1045C00024F0100CBCF1020F14D14FEAD20E00EB14
:1045D0008E0E02F00706DEF82030B6004FF00F080E
:1045E00008FA06F823EA08080B69B34048EA03030F
:1045F000CEF820304FEA420E0323066803FA0EF38A
:10460000DB4303EA060804F0030606FA0EF60CF193
:10461000FF3C48EA0606BCF1010F066011D8866827
:1046200003EA060CCE6806FA0EF64CEA0606866029
:10463000466826EA050CC4F3001696404CEA0606C6
:104640004660C66803EA060C8B6803FA0EF64CEA6D
:104650000603C360E3007ED5424E736C43F480438F
:10466000736422F0030606F1804606F59C3602F0DC
:10467000030CD6F808E04FEA8C0C0F2303FA0CF376
:104680002EEA030E384B984226D003F580639842F9
:1046900024D003F58063984222D003F580639842CA
:1046A00020D003F5806398421ED003F580639842C2
:1046B0001CD003F5806398421AD003F580639842BA
:1046C00018D003F58063984216D003F580639842B2
:1046D0000CBF09230A2310E000230EE001230CE0A5
:1046E00002230AE0032308E0042306E0052304E094
:1046F000062302E0072300E0082303FA0CF343EA51
:104700000E03DFF868E0B360DEF80030EE4314F427
:10471000803F14BF2B433340CEF80030DEF8043026
:10472000DFF848E014F4003F14BF2B433340CEF8C9
:104730000430DEF8083014F4801F14BF2B433340DC
:10474000CEF80830DEF80C30A40254BF06EA0305A8
:104750001D43064BDD600132102A7FF429AFBDE80E
:10476000F08100BF0038024000000240003C0140E0
:10477000F8B503680446D80703D4236899074AD4D8
:104780009BE0894B9A6802F00C02042A07D09A68D1
:1047900002F00C02082A0BD15B685A0208D5824B42
:1047A0001B689B03E9D56368012BE6D00120F8BDA7
:1047B0007E4D00232B70FFF773FD06467A4B1B6876
:1047C0009F0307D5FFF76CFD801BB0F5FA7FF5D985
:1047D0000320F8BD23792B706368012B0DD1FFF7FF
:1047E0005FFD0546704B1B689803C6D4FFF758FD64
:1047F000401BB0F5FA7FF5D9EAE7FFF751FD054612
:10480000694B1B689903B8D5FFF74AFD401BB0F50B
:10481000FA7FF5D9DCE7644B9A6812F00C0F07D0E9
:104820009A6802F00C02082A18D15B685A0215D463
:104830005D4A13689B0702D5E368012BB6D1116866
:10484000F82393FAA3F3B3FA83F32069DBB2984019
:1048500021F0F80140EA010313602EE0E268544BB6
:10486000EAB101221A60FFF71BFD05464E490B68AD
:104870009F0705D4FFF714FD401B6428F6D9A7E76E
:104880000A68F82393FAA3F3B3FA83F32069DBB23F
:10489000984022F0F80240EA02030B600DE01A6033
:1048A000FFF7FEFC0546404B1B689E0705D5FFF74A
:1048B000F7FC401B6428F6D98AE723681D0703D458
:1048C0002368580748D51FE062693A4B72B101224C
:1048D0001A60FFF7E5FC0546334B5B6F9907EFD491
:1048E000FFF7DEFC401B6428F6D971E71A60FFF77A
:1048F000D7FC05462C4B5B6F9A07E1D5FFF7D0FC40
:10490000401B6428F6D963E7274A136C43F08053B1
:104910001364A2F5E432136843F480731360FFF765
:10492000BFFC0546244B1B68DB0518D5234D00232F
:104930002B70FFF7B5FC06461B4B1B6F9F0714D46B
:10494000237A2B70A368012B1FD1FFF7A9FC054622
:10495000154B1B6F9E0710D5A2698ABB73E0FFF74A
:104960009FFC401B6428DDD932E7FFF799FC41F238
:104970008833801B9842DFD92AE7FFF791FC41F288
:104980008833401B9842E3D922E7FFF789FC0546AC
:10499000054B1B6F9807DFD5FFF782FC41F2883388
:1049A000401B9842F4D913E7003802400238024015
:1049B00000004742800E47420070004070380240BD
:1049C0002E4B9B6803F00C03082B3FF4EFAE2C4DED
:1049D0000023022A2B6044D1FFF762FC0746274ED2
:1049E0003368990131D447F6C07090FAA0F0B0FA5C
:1049F00080F04FF4403191FAA1F1B1FA81F14FF01A
:104A0000706292FAA2F2B2FA82F2276AE3693B4339
:104A100043F00057636AC0B2834047EA0300A36AC9
:104A20005B08C9B2013B8B40D1B2E26A03438A40C2
:104A30001343736001232B60FFF732FC04460F4BD6
:104A40001B689A0107D50020F8BDFFF729FCC01BA1
:104A50006428C4D9BCE6FFF723FC001B6428EED908
:104A6000B6E6FFF71DFC0446044B1B689B01EAD524
:104A7000FFF716FC001B6428F6D9A9E600380240AF
:104A8000600047426F4B1A6802F00F02914270B506
:104A900004460D4668D9CAB21A701B6803F00F03AA
:104AA0008B4201D0012070BD01688B0741BF664871
:104AB000836823F0F002A36844BF13438360CE07EA
:104AC0000BD421684D0740F1AC805F48836823F424
:104AD000E052E36813438360A3E062685A4B012A03
:104AE000196802D111F4003F06E0022A02D111F048
:104AF000007F01E011F0020FD4D0996821F003018A
:104B00000A439A60FFF7CCFB6368012B05460ED180
:104B10004D4B9B6803F00C03042BD2D0FFF7C0FB76
:104B200041F28833401B9842F2D9032070BD022B1A
:104B300014D1454B9B6803F00C03082BC1D0FFF741
:104B4000AFFB41F28833401B9842F2D9EDE7FFF703
:104B5000A7FB41F28833401B9842E6D83A4B9B684A
:104B600013F00C0FF3D1ACE70168880741BF36485A
:104B7000836823F0F002A36844BF13438360CA072D
:104B800008D4304BEAB21A701B6803F00F03AB4233
:104B900088D196E762682C4B012A196802D111F47A
:104BA000003F06E0022A02D111F0007F01E011F07F
:104BB000020F3FF477AF996821F003010A439A602E
:104BC000FFF76EFB6368012B06460DD11E4B9B68F9
:104BD00003F00C03042BD4D0FFF762FB41F28833BF
:104BE000801B9842F2D9A0E7022B14D1164B9B6888
:104BF00003F00C03082BC4D0FFF752FB41F28833BB
:104C0000801B9842F2D990E7FFF74AFB41F28833C4
:104C1000801B984289D80C4B9B6813F00C0FF3D182
:104C2000AFE70B0741BF084A2169936823F460434B
:104C300044BF43EAC10393600F2000F04BFC002007
:104C400070BD00BF003C02400038024030B5214D2D
:104C5000AB6803F00C03042B38D0082B38D16A68FA
:104C60006B6802F03F044FF4800191FAA1F1B1FAB0
:104C700081F103F48003C9B2CB4047F6C0716B6881
:104C800091FAA1F1B1FA81F147F6C07004BF124A5E
:104C9000B2FBF4F2C9B200EA030020FA01F01CBF33
:104CA0000E49B1FBF4F202FB00F30A4A50684FF4DC
:104CB000403292FAA2F2B2FA82F2D2B200F440305A
:104CC000D04001304000B3FBF0F030BD034830BDB0
:104CD000014830BD003802400024F40000127A0080
:104CE00008B5FFF7B3FF094B9A68F02393FAA3F3D3
:104CF000B3FA83F302F0F002DBB222FA03F3044AC0
:104D0000D35CD840034B186008BD00BF0038024098
:104D100094E600088C01002008B5FFF7E1FF084B7E
:104D20009A684FF4E05393FAA3F3B3FA83F302F4CF
:104D3000E052DBB222FA03F3024AD35CD84008BD4A
:104D40000038024094E6000808B5FFF7C9FF084B99
:104D50009A684FF4604393FAA3F3B3FA83F302F42F
:104D60006042DBB222FA03F3024AD35CD84008BDAA
:104D70000038024094E60008036A23F0010303624E
:104D8000036A426870B584690D6824F07304254392
:104D900023F002048B6823430C4CA04209D004F595
:104DA0008064A04205D042604A6885614263036224
:104DB00070BDCC688E6923F0080323434C6922F44C
:104DC0004072344323F004032243ECE70000014027
:104DD000036A23F480730362036A426830B5C469CE
:104DE0000D6824F073042C438D6823F4007343EAA8
:104DF00005230E4DA84209D005F58065A84205D0CF
:104E000042604A68C461C263036230BDCD6823F466
:104E1000006343EA05234D6922F4405242EA051239
:104E20008D6923F4806342EA0512E9E7000001403E
:104E3000036A23F48053036230B5046A4368C2698D
:104E40000D6822F4E64242EA05228D6824F40054FB
:104E500044EA0534094DA84209D005F58065A84209
:104E600005D043604B68C2610364046230BD4D6984
:104E700023F4804343EA8513F3E700BF00000140B9
:104E8000704770477047036851B1042910D01A6AFF
:104E900022F001021A621A6A42F001021A6207E065
:104EA0001A6A22F001021A621A6A42F0010206E04E
:104EB0001A6A22F010021A621A6A42F010021A628A
:104EC0001A6842F001021A60002070472E4A0368F7
:104ED000904212D0B0F1804F0FD0A2F57C429042A8
:104EE0000BD002F58062904207D002F580629042BA
:104EF00003D002F57842904218D14A6823F070033B
:104F00001343214A904237D0B0F1804F34D01F4A2A
:104F1000904231D002F5806290422DD002F580623D
:104F2000904229D002F57842904225D0184A90420A
:104F300022D002F5806290421ED002F5806290423B
:104F40001AD0A2F59832904216D002F580629042B3
:104F500012D002F5806290420ED003608B68C3626B
:104F60000B688362084B98420BD003F5806398422C
:104F700007D0012343617047CA6823F44073134389
:104F8000EBE70B690363F4E7000001400004004015
:104F90000040014010B5044680B190F839300BB99B
:104FA000FFF76EFF022384F839302068211DFFF7D8
:104FB0008DFF012384F83930002010BD012010BD81
:104FC00010B5044680B190F839300BB9FFF759FF9E
:104FD000022384F839302068211DFFF777FF012371
:104FE00084F83930002010BD012010BDF8B50C4602
:104FF000054600283DD090F839300BB9FFF742FF45
:105000002946022351F8040B85F83930836823F0D0
:1050100007038360FFF75AFF296822688E688B694F
:105020002769086A164323F44073A26923F0030337
:1050300043EA0222A3681343E2693F0147EA0227D9
:10504000E2683A43276A23F47C4342EA073223F0BA
:10505000FC03134320F0AA02606942EA0012606870
:105060008E6002438B6101230A62002085F839308B
:10507000F8BD0120F8BD0000036A23F010030362AD
:10508000036A426830B584690D6824F4E64444EA52
:1050900005248D6823F0200343EA05130E4DA84232
:1050A00009D005F58065A84205D042604A68846150
:1050B0008263036230BDCD6823F0800343EA0513A9
:1050C0004D6922F4406242EA85028D6923F0400373
:1050D00042EA8502E9E700BF0000014038B590F8D8
:1050E0003830012B04460D464FF0020058D0012302
:1050F00084F8383084F839000C2A4BD8DFE802F005
:10510000074A4A4A174A4A4A294A4A4A39002068FD
:10511000FFF732FE23689A6942F008029A619A69A1
:1051200022F004029A6199692A690A430FE0206813
:10513000FFF7A2FF236829699A6942F400629A6125
:105140009A6922F480629A619A6942EA01229A611C
:1051500020E02068FFF73CFE2368DA6942F008028D
:10516000DA61DA6922F00402DA61D9692A690A434C
:105170000FE02068FFF75CFE23682969DA6942F4D2
:105180000062DA61DA6922F48062DA61DA6942EA9D
:105190000122DA610123002084F8393084F83800D4
:1051A00038BD10B50123046A8B4024EA030303626F
:1051B000036A8A401343036210BD000010B5044621
:1051C00001220068FFF7EDFF2368084A934203D0ED
:1051D00002F58062934203D15A6C42F400425A6451
:1051E0001A6842F001021A60002010BD0000014060
:1051F00010B5044601220068FFF7D3FF2368084A70
:10520000934203D002F58062934203D15A6C42F478
:1052100000425A641A6842F001021A60002010BD70
:105220000000014010B50423046A8B4024EA030304
:105230000362036A8A401343036210BD10B504463B
:1052400004220068FFF7EEFF23685A6C42F4004224
:105250005A641A6842F001021A60002010BD90F8EA
:105260003830012B10B54FF0020318D080F83930D8
:1052700003685A6822F070025A605C680A68224328
:105280005A609A6822F080029A609C684A682243B9
:105290009A60012380F83930002380F838301846AE
:1052A00010BD00002DE9F84306683369054623F474
:1052B0004052C3682969C0691343AA683361F3681F
:1052C00011436A6923F416430A43024323F00C0393
:1052D0001343F360736923F44072AB69B0F5004F78
:1052E00043EA020373613F4B36D19E4203D003F57C
:1052F00080639E4216D1FFF727FD6F681924604333
:105300007F00B0FBF7F7FFF71FFD6A684FF06408F6
:105310006043B7FBF8F752003F01B0FBF2F9FFF72B
:1053200013FD15E0FFF7F8FC6F68192460437F0058
:10533000B0FBF7F7FFF7F0FC6A684FF064086043D2
:10534000B7FBF8F752003F01B0FBF2F9FFF7E4FCBE
:1053500044436868400034E09E4202D0224B9E42A3
:1053600016D1FFF7F1FC6F6819246043BF00B0FB52
:10537000F7F7FFF7E9FC6A684FF064086043B7FB92
:10538000F8F792003F01B0FBF2F9FFF7DDFC15E002
:10539000FFF7C2FC6F6819246043BF00B0FBF7F74A
:1053A000FFF7BAFC6A684FF064086043B7FBF8F790
:1053B00092003F01B0FBF2F9FFF7AEFC444368688E
:1053C0008000B4FBF0F0B0FBF8F008FB1092120183
:1053D0003232B2FBF8F303F00F033B43B360BDE896
:1053E000F88300BF0010014000140140704710B561
:1053F000044618B390F839300BB9FFF7F7FF22686D
:10540000022384F83930D36823F40053D360204654
:10541000FFF748FF23681A6922F490421A615A691B
:1054200022F02A025A61DA6842F40052DA6000205F
:10543000012384F83A0084F8393010BD012010BDF2
:1054400030B50C4B0C4C9A682578134675B9131F70
:105450000A4A53F8045F42F8045F094DAA42F8D1A2
:10546000044A4FF00053936001222270103043F839
:10547000201030BD00ED00E0F8020020FCFFFF1F0F
:105480008401002038B5114B1A68D16811F0020F61
:105490001C4604D06FF00203136100F0A9FF2368DB
:1054A000DA68520711D56FF00402094D1A615C6A7F
:1054B0002B68E31AB3F57A7F07D3FEF7E9FE034BB7
:1054C0002C601B6804F57A729A6338BD00030020D3
:1054D000FC02002038B51F4B1F4C1A6C42F008022A
:1054E0001A641A6A42F008021A621A6A22F0080262
:1054F0001A62A3F50B3323604FF0FF33E360174BC1
:10550000174A1B68B3FBF2F30025013B204663609A
:105510002561A5606561FFF73DFD32201149FFF768
:105520008FFF114B4FF480225A6029462046FFF727
:1055300045FE20460421FFF741FE23680B495A6AC5
:105540000A6002F57A729A63DA6842F00402DA605D
:10555000284638BD00380240000300208C0100209E
:1055600040420F008554000800E100E0FC020020EA
:10557000174A1849936803F00C03042B03D0082B37
:1055800003D0154B18E0154B16E05068536810F423
:10559000800F03F03F03506814BF104A0E4AB2FB5D
:1055A000F3F30B4A5268C2F30142C0F38810013290
:1055B00043435200B3FBF2F30B60054B084A9B6870
:1055C000C3F30313D25C0B68D3400B60704700BF7A
:1055D000003802408C0100200024F40000127A0000
:1055E000A4E60008174A136C43F0805330B51364E7
:1055F000A2F5E43293B0136823F4404343F400432C
:1056000013604FF480030D931A230E93C0230124DB
:1056100002250F9306A80423109311930694079470
:105620000C95FFF7A5F80D2301930023039301A820
:105630004FF480532146029504930593FFF722FA15
:1056400013B030BD00380240174AD2F8883010B588
:1056500043F47003154CC2F888302368002143F0EE
:1056600001032360A160236823F0847323F4803353
:1056700023600F4B6360236823F4802323600D4B6A
:10568000E16093600C4B0D4A1A60FEF7E7FDFFF7EF
:10569000A9FFFFF76DFF236A43F008032362236A23
:1056A00023F00803236210BD00ED00E00038024043
:1056B00010300024004000088C010020006CDC0247
:1056C0001FB5244B026841791A6000230122019220
:1056D000029303930F2938D8DFE801F025080A0C5C
:1056E0000E10121416181A1C1E20222400921BE001
:1056F000022318E0032316E0042314E0052312E03C
:10570000062310E007230EE008230CE009230AE03B
:105710000A2308E00B2306E00C2304E00D2302E03B
:105720000E2300E00F23009369460A48FEF7A4FE0B
:105730000848FEF741FE07480A21FEF775FE20B92A
:105740000448FEF795FE80B200E0002005B05DF849
:1057500004FB00BF3C03002038B504460D46084654
:10576000164900F00FFE15492060284600F026FE7D
:10577000C0F3C32060711149284600F0C7FD104AEC
:1057800025711368CBB90F4801211160426C42F4B6
:105790008072426422680C4880E80C0083600361D8
:1057A000836143628362C3620363C360C361436115
:1057B000BDE838400162FEF77BBD38BDBCE900089A
:1057C00080030020003802403C03002008B5FFF7AA
:1057D00077FF07EE900AB8EE677ADFED037A67EE9F
:1057E000277A17EE900A08BD0108803910B500210C
:1057F000044604F00F0400F099F90120A04010BD08
:1058000070B504464B1C0E46217010D0C1F3031036
:1058100000F028F905463046FFF7E8FF05F11003D0
:10582000A36005F118031A356060E360256170BD5F
:1058300090F9000000F09CB9012990F9000018BF10
:10584000002100F073B900002DE9F041154E4C2401
:1058500004FB0064074688460434002545451ED0F5
:105860004C237B430121F35801FA05F21A4213D06D
:105870000D4A236B5069D4F818E001FA03F3034290
:105880000AD05361206838B1DEF810201342074B6C
:1058900008BF02211B68984701350434DEE7BDE8E4
:1058A000F08100BF84030020003C014098050020E7
:1058B00000200121FFF7C8BF01200146FFF7C4BF48
:1058C00002200121FFF7C0BF03200121FFF7BCBF69
:1058D00004200121FFF7B8BF05200146FFF7B4BF40
:1058E00006200146FFF7B0BF2DE9F74F9B464B1C42
:1058F00081460D46019266D001F00F0808F1FF3392
:10590000C1F303100E2B09D8DFE803F00C101418B4
:105910001C1C1C1C1C202020202020002C4F00249C
:10592000062616E02B4F0124072612E02A4F0224F8
:1059300008260EE0294F032409260AE0284F0424F4
:105940000A2606E0274F0524172602E0264F0624E4
:10595000282600F087F84FFA86FA0090072128469B
:1059600000F0E4F850463946FFF76AFD06F01F01E3
:10597000012202FA01F04FEA5A131C4941F82300B0
:105980001B4B89F8006053F828601A4989F80C50BD
:105990004C23634302FA06F5CA58C9F804402A4367
:1059A0000020C9F80800CA50132303FB046401EB6C
:1059B0008403009ADA61C3F804B0C3F834800E4B54
:1059C000019A1A6000E0084603B0BDE8F08F00BFFE
:1059D000B1580008B9580008C1580008C958000853
:1059E000D1580008D9580008E158000800E100E04B
:1059F000B4E600088403002098050020F8B542684A
:105A0000124B0546007B00F00F014C2453F8213067
:105A10000F495443012606FA03F70E5926EA0706F2
:105A20000E51132404FB023301EB83020024546063
:105A30009A1D0C3301EB820201EB830354605C601E
:105A400040B2214600F072F8AC60F8BDB4E6000840
:105A50008403002008B5FFF78BFDBDE80840FEF782
:105A6000FDBB000008B5082845D8DFE800F0050CAC
:105A7000131A21282F363D00214A2248136B43F088
:105A80000103136308BD1E4A1F48136B43F0020352
:105A9000136308BD1A4A1D48136B43F004031363D4
:105AA00008BD174A1A48136B43F00803136308BD77
:105AB000134A1848136B43F01003136308BD104AD0
:105AC0001548136B43F02003136308BD0C4A1348B9
:105AD000136B43F04003136308BD094A1048136B6E
:105AE00043F08003136308BD054A0E48136B43F46B
:105AF0008073136308BD0C4800F0C4FB002008BD90
:105B00000038024000000240000402400008024049
:105B1000000C024000100240001402400018024035
:105B2000001C024000200240F4E6000830B50546A3
:105B300087B0C0F303100C4605F00F05FFF792FF86
:105B40000123AB4004F00F020193084B53F82230BD
:105B50000293C4F302130393C4F3C314032301A9F0
:105B600004930594FEF720FD07B030BD18E7000848
:105B700038B500F00F05C0F303100C46FFF772FFB5
:105B80006B00C16803229A4021EA0202032CC26022
:105B9000C16828BF00249C400C43C46038BD00008D
:105BA00030B507EE101A244B02681A60B5EEC07AC1
:105BB000F1EE10FA89B009D4F7EE007AB4EE677A04
:105BC000F1EE10FAC8BFB0EE677A01E09FED1B7AE4
:105BD000D0ED027A457CF8EE677A002367EE877A8B
:105BE00003930493059306930793037CFCEEE77AF3
:105BF0006022013BC0ED037A0192CDED027A032BC6
:105C000017D8DFE803F008020406042404E008249F
:105C100002E00C2400E0002401A907482246FFF717
:105C20005DFA0548214615B1FFF708FB01E0FFF7D3
:105C3000DFFA09B030BD00BF9C0500200000000065
:105C40008368ABB190ED037A07EE903AB8EE477AED
:105C5000F8EE677AC7EE277AB7EE007AF4EEC77AE5
:105C6000F1EE10FAD4BF17EE900A17EE100A704743
:105C7000002070472DE9F0410568194C06460F4693
:105C80002560FFF7DDFF2A6A41F2111313408046B9
:105C900043B92A6A40F2444313401BB92B6823F0EE
:105CA00001032B60FFF764FC7B1EE3600D4B0E4A83
:105CB0001B68B3FBF2F3013B6360094800232361D7
:105CC000A360FFF77DF930464146FFF769FF226880
:105CD000B760136843F001031360BDE8F08100BFB3
:105CE0009C0500208C01002040420F0038B504467E
:105CF0000D4608463F4900F045FB3E4920602846D6
:105D000000F05CFBC0F3C32323742368C0F3C030EE
:105D10000133607402D1384800F0B4FA2368374A7E
:105D2000934205D136494A6C42F001024A6423E0AD
:105D3000B3F1804F05D132490A6C42F001020A6486
:105D40001AE0304A934205D12D490A6C42F0020212
:105D50000A641AE02C4A934205D129490A6C42F0A0
:105D600004020A641AE0294A934205D124494A6C84
:105D700042F002024A6424E0254A934205D102F52A
:105D80007842536C43F4803310E0224A934205D1A9
:105D900002F57442536C43F4003307E01E4A934209
:105DA00006D102F57042536C43F48023536411E032
:105DB0001A4A934205D102F50732136C43F080036F
:105DC00007E0174A934205D102F50632136C43F4FB
:105DD000807313642846074900F098FA0023257160
:105DE000A360E360204644F62061BDE83840FFF739
:105DF00041BF00BFDCE700084CE70008000001409D
:105E00000038024000040040000800400004014047
:105E1000004001400044014000480140001C004097
:105E20000020004007EE901AB8EEE77AD0ED027A33
:105E3000F8EE677AC7EE277A17EE901AFFF7B0BE32
:105E40000E4B02681A6082685A60C2689A600269E2
:105E5000DA6042691A6100229A6190F919200132D0
:105E600001D1082205E090F9182001320CBF04226C
:105E70000C2202485A61FFF7BABA00BF00060020A0
:105E8000124A70B552F82130114C0E46206015466A
:105E9000D3B10268520608D50E4A1846126801218D
:105EA000904723686FF040021A6023681B689B06C6
:105EB0000AD5084B55F826001B6800219847044B6B
:105EC0001B686FF020021A6070BD00BFDC05002067
:105ED00000060020FC05002001480021FFF7D0BF8C
:105EE0000010014001480121FFF7CABF00440040F3
:105EF00001480221FFF7C4BF0048004001480321C8
:105F0000FFF7BEBF004C004001480421FFF7B8BFB7
:105F10000050004001480521FFF7B2BF00140140C6
:105F2000F8B504460E4608464149154600F02AFADF
:105F300040490746284600F025FA0146384600F059
:105F400003FA3D4B206098422FD00ED8A3F5006392
:105F5000984223D003F58063984234D1374A136CBA
:105F600043F48023136402232CE0354B98420ED077
:105F700003F5806398421FD0A3F54443984222D191
:105F80002E4A136C43F48013136404231AE02B4A43
:105F9000536C43F010035364002313E0274A136C3F
:105FA00043F40033136401230CE0244A136C43F4DC
:105FB00000231364032305E0204A536C43F02003BD
:105FC0005364052363603046194900F09FF9284661
:105FD000184900F09BF9721C03D030460121FFF7ED
:105FE000C7FD6B1C03D028460121FFF7C1FD4FF40C
:105FF0001653A3600023E360236163612676657610
:106000002046FFF71DFF22680E4B9A420FD10E4B20
:1060100001221A600D4B04F11805206861681A46C8
:1060200003C20834AC421346F7D120681060F8BDB3
:1060300050E9000870E70008004C004000380240BA
:106040000010014000440040D80500203C0600201C
:106050008160FFF7F5BE0000034B19604168034BF8
:1060600043F82120704700BFFC050020DC0500201C
:1060700038B50D462E4903680B602E498B421FD060
:106080000AD8A1F500618B4217D001F580618B42DF
:106090001CD1294927241BE028498B420AD001F54D
:1060A00080618B420FD0A1F544418B420ED124492F
:1060B00035240DE0234925240AE02349262407E05E
:1060C0002249342404E02249472401E000210C46FF
:1060D000A2B1DA6815B942F0200201E042F04002B4
:1060E00065B2DA602846FFF7ABF96D0904F01704D2
:1060F0000123184AA34042F8253038BDDA6835B983
:1061000022F02002DA60DB681A0606D538BD22F0DC
:106110008002DA60DB689B0608D46309012204F080
:10612000170420330B49A24041F8232038BD00BF9B
:1061300000060020004C0040F15E00080010014005
:10614000095F0008D95E0008E55E0008FD5E0008F2
:10615000155F000800E100E00368034A1868136057
:10616000C0F34010704700BF0006002038B5056836
:1061700004462046FFF7F0FF0028FAD06868C0F315
:10618000080038BD0368034A18681360C0F3C010E4
:10619000704700BF0006002070B5066805460C4633
:1061A0002846FFF7EFFF0028FAD0C4F30804746014
:1061B00070BD0000054B186830B901221A60044B0D
:1061C000044A1A60FFF786B9704700BF94060020A2
:1061D00058060020000C004008B5044B1B680BB9A2
:1061E000FFF7E8FF024B586A08BD00BF9406002085
:1061F000000C0040034B1B685863DA6842F002024F
:10620000DA60704758060020034B1A68D36823F001
:106210000203D360704700BF58060020024B1B6882
:106220006FF002021A617047580600200649074ABB
:10623000074B9A42BEBF51F8040B42F8040BF8E733
:106240000448804704480047F8F00008880100200F
:10625000D802002049560008E5410008FEE7FEE7A5
:10626000FEE7FEE7FEE7FEE7FEE7FEE7FEE7FEE706
:1062700008B572B6962000F031F9962000F02EF99C
:10628000F8E700000FB407B5054B04AA1B6852F8E5
:10629000041BD868019203F039F8012002F03AFAA1
:1062A0008402002070B50E4604461546FFF7A8FA92
:1062B000013609D020460021FFF7BEFA20462946C4
:1062C000BDE87040FFF7B4BA70BD0022FFF7EABF27
:1062D00070B50E4604461546FFF792FA013610D007
:1062E00063680DB1E26800E022699BB2204601219B
:1062F0001380FFF7A1FA20460021BDE87040FFF7A8
:1063000097BA70BD0022FFF7E3BF000010B5044646
:10631000013001D110BD0C3191F900305A1C0BD065
:10632000A342F8D120468968FFF700FC20460021EF
:10633000BDE81040FFF71CBC0248BDE81040FFF765
:10634000A1BF00BF88EA0008884208B50AD0431CF4
:1063500007D0013106D00448FFF794FF4FF0FF301B
:1063600008BD084608BD00BF99EA000891F9003051
:106370005A1C05D0834201D1486870470C31F5E7BB
:1063800018467047421C10B5044607D0FFF7EEFFD1
:10639000431C044602D10248FFF774FF204610BD9B
:1063A000AAEA000891F900305A1C05D0834201D1B5
:1063B000886870470C31F5E718467047421C10B5E5
:1063C000044607D0FFF7EEFF431C044602D1024803
:1063D000FFF758FF204610BDCAEA000810B5044672
:1063E000FFF7E8FE014B1C6010BD00BF9C060020BB
:1063F00038B5FFF713FF0E4C23681BB9BDE83840D2
:10640000FFF702BF1D68FFF7E7FE281A002809DC26
:10641000226893682360074B1B68002BEBD0506801
:106420009847E8E723681868BDE83840FFF7E2BE00
:10643000980600209C06002038B572B680E8060059
:106440000A4A1368002433B11D684D1B002D02DB7E
:106450001C469B68F7E7836024B910600846FFF785
:10646000C9FE00E0A06062B638BD00BF98060020FB
:1064700008B572B60B4A136883420AD19B68136051
:1064800013B9FFF7C1FE0AE01868FFF7B3FE06E094
:10649000134623B19A688242FAD182689A6062B642
:1064A00008BD00BF9806002038B50446FFF794FEEB
:1064B0000546FFF791FE401BA042FAD338BD00000D
:1064C00007EE100ADFED047A67EE277AFDEEE77A31
:1064D00017EE900AFFF7E8BF002474494FF47A736F
:1064E0005843FFF7E1BF0000094B036083686BB1BD
:1064F000084A1368834202D14368136070475A68A0
:10650000824201D01346FAE742685A60704700BFE2
:10651000F0EA0008A006002010B50446FFF7E4FFEB
:10652000204602F0C6F8204610BD0000054B03606F
:10653000002343608160027319B1034B1A68426003
:1065400018607047F0EA0008A0060020F8B50B4B71
:106550001C6807460E4674B1A56855B128463946F1
:10656000324604F008F920B9284604F0FCF8B0429D
:1065700001D06468EFE72046F8BD00BFA006002008
:10658000007B7047036870B51B6900210122054636
:106590009847431C04460ED02B6828461B690021EF
:1065A000022298472B6806461B692846214600228E
:1065B0009847304670BD70BD10B5074B04460022A9
:1065C00040F8043BFFF7B2FF044B03F108023433F9
:1065D00022606360204610BD78EB0008F8EA0008EE
:1065E00010B5074B03F1080234330446026040F84B
:1065F000043FFFF779FF204600F0C2F8204610BDA7
:10660000F8EA000810B50023036043600A782F2AD7
:10661000044613D14A788AB1481C20601946236881
:106620001A782F2A02D10133236004E01AB1013312
:1066300001312360F3E7FFF789FF6060204610BD5A
:1066400000687047406808B520B1FFF799FF431E06
:106650005842584108BD10B50446FFF7F3FF00B19A
:10666000606810BD406808B520B1FFF789FFB0FA37
:1066700080F0400908BD10B50446FFF7F3FF10B1E4
:10668000606800B1043810BD4068003018BF0120B8
:106690007047002242608261016070470023016000
:1066A000436070470368014603B11847406810B162
:1066B0008B6908311847704710B5044B044640F801
:1066C000183BFFF79BF9204610BD00BF40EB0008C8
:1066D00010B50446FFF7F0FF204601F0EAFF204620
:1066E00010BD012902D0022902D07047283000E0F5
:1066F0004430FFF7D7BF0000F8B50546134B45F807
:10670000043B04460E4604F11807284600211422D3
:1067100002F029FC10223846002102F024FC04F18A
:1067200028000021FFF7B5FF04F144000021FFF726
:10673000B0FF3146064A23463846FFF7D5F82846CB
:106740003146FFF7C2FD2046F8BD00BF40EB000810
:10675000E3660008704710B5044601F0AAFF204622
:1067600010BD0000044B1B6823B90448022103221A
:10677000FFF7D6BB704700BFD80500203C060020BD
:10678000074B03600023074A52F82310814204BFDD
:10679000002142F823100133402BF4D1704700BF91
:1067A00078EB0008A40600202DE9F3410F462D499F
:1067B000054603F0CEFF044610B9FFF7D3FF4DE0C6
:1067C0002846294903F0C5FF18B9FFF7CBFF01247C
:1067D00044E02846254903F0BCFF18B9FFF7C2FF83
:1067E00002243BE00024224B53F824201E4672B1C1
:1067F0000134402CF7D107E068462946FFF702FF35
:106800006846FFF741FF60B94FF0FF3426E02B7870
:106810003A2BF1D1284617496A4603F02BFF00981E
:1068200017E06846FFF71EFF18B16846FFF723FF21
:106830000FE06846FFF70FFF05460028E4D0036825
:106840006846D3F80880FFF7FBFE3A460146284623
:10685000C0470028D8D046F824000334204602B0B0
:10686000BDE8F08148EB000865EB00084FEB00083D
:10687000A406002057EB000802284FF0000309DDB2
:10688000C21E074951F8220041F8223020B10368A6
:106890005B681847184670474FF0FF30704700BFDD
:1068A000A4060020022870B50C4615460FDC0E4BDE
:1068B0001B680BB9FFF756FF6619B44205D00B48A9
:1068C00014F8011BFFF768FCF7E7284670BD033892
:1068D000074B53F8200020B10368BDE870401B68E7
:1068E00018474FF0FF3070BDD80500203C0600204F
:1068F000A4060020022810B50C460ADC0B4B1B68CE
:106900000BB9FFF72FFF0A48FFF730FC207001207A
:1069100010BD0338074B53F8200020B10368BDE8D1
:1069200010409B6818474FF0FF3010BDD80500207D
:106930003C060020A4060020022807DD0338064B91
:1069400053F8200020B10368DB6818470120704726
:106950004FF0FF30704700BFA4060020022807DD7B
:106960000338064B53F8200020B103681B69184711
:10697000002070474FF0FF30704700BFA406002092
:10698000022808B504D84FF400534B60002008BD1E
:1069900001F0BAFE092303604FF0FF3008BD08B5CF
:1069A000012001F0B7FE704708B5FFF753F8FFF775
:1069B000FAFFBDE8084001F05DBA0000074A13681D
:1069C0001844EFF30881884229BF054B10600C2260
:1069D0004FF0FF302CBF1A6018467047900100201E
:1069E000A4190020074C08B523680546986801F0F3
:1069F000ADFF2368D86801F0A9FF0DB1FFF738FC9F
:106A0000FEE700BF84020020002103F037BD02F042
:106A100011B800F09AB8A0F15C00FFF7FABF00F0DF
:106A200097B8A0F15C00FFF7FABF000010B5074B64
:106A300003F10802026003F1200254330446C265E8
:106A400003665C3000F0DCF8204610BDA0EB0008C7
:106A5000A0F15C00FFF7EABFA0F16000FFF7E6BF1E
:106A600010B50446FFF7E2FF204601F022FE204663
:106A700010BDA0F15C00F3E7A0F16000F0E70000BA
:106A800038B504461D4600F019F804F15C002946AB
:106A900000F094F8054B03F10802226003F1200294
:106AA0005433E2652366204638BD00BFA0EB0008E2
:106AB0001C2303FB01002030FFF7F4BDF8B50546A9
:106AC000114B45F8043B04460F46164628461C2247
:106AD000002102F048FA04F120000021FFF7D9FD5F
:106AE00004F13C000021FFF7D4FD4FF41653A365D9
:106AF000284639463246FFF713FA2846034922460C
:106B0000FFF7AAFA2046F8BD08EC0008B16A0008B1
:106B100038B504460D460430FFF79AFAA56538BD2E
:106B200038B51446051D0A4649B11C2303FB040071
:106B30002030FFF7B3FD28462146012201E0284618
:106B40002146BDE83840FFF793BA0430FFF70EBB8B
:106B500010B504300C46FFF71FFB204610BD002087
:106B60007047F8B507460D468E180C46B44208D05B
:106B70003B6814F8011B5B6A384698470130F5D131
:106B80002646701BF8BDF8B506460D468F180C4614
:106B9000BC4208D0336830469B6A9847431C02D0F9
:106BA00004F8010BF4E7601BF8BD002070470020DB
:106BB0007047002070470020704700001FB5044652
:106BC000FFF7FAFC0B4B0C4903F108023C336360FE
:106BD00000236361226001A8224603F027FD0749D4
:106BE00001A802F035F86061FFF70EFF204604B0FF
:106BF00010BD00BF10EC000857EB000858EC00086F
:106C000010B5074B03F108023C33044602604360B1
:106C1000406901F0E5FD2046FFF7E2FC204610BD8B
:106C200010EC000870B504460E461546406901F0A8
:106C30008DFE304629466269BDE87040FFF7E7BE29
:106C40000EB433B505AB044653F8045B40690193B9
:106C500001F07CFE6069019A294602F057FB02B000
:106C6000BDE8304003B0704710B501694368044681
:106C7000194400F049F804F11400BDE81040FFF792
:106C800011BD10B5044600F043F804F114000021D2
:106C9000BDE81040FFF702BD10B5054B0360044688
:106CA000FFF7EFFF204600F023F8204610BD00BF9D
:106CB00068EC000810B50446FFF7EEFF204601F02F
:106CC000F8FC204610BD03689B68184710B5064BBA
:106CD00003600023044643608360C3600348FFF7FA
:106CE0007DFB204610BD00BF80EC0008C76C00088B
:106CF00010B5044B044640F8043BFFF7B9FB2046AF
:106D000010BD00BF80EC000802460430FFF794BBC2
:106D10000430FFF7ADBB0000436AF0B5C46A23F04E
:106D2000030323445A0748BF043B4FF0807203E932
:106D30000600A3F14005A3F14402A3F10C060027CD
:106D400042F8047FB242FAD1C26943F8202CC378DA
:106D50008562012B18BF024B016318BF2360F0BD91
:106D6000A52E5AE290F82020836A0AB1603300E031
:106D700020331960704710B590F82040836A0CB139
:106D8000603300E0203383E8060010BDFEE7FFF724
:106D90006FBA08B1FFF76CBA704700000449054AA2
:106DA000C1F1005303F5FE339360D160704700BF1B
:106DB000A8190020940100200020002104460D465F
:106DC000094801F08DFC02F015F82046294600F034
:106DD00073F8FFF7E3FF0548002100F009F900F020
:106DE0007FF801F097FC0000A98B000894010020B7
:106DF00038B1830704D10378002B18BF00207047F7
:106E00000020704700B5DFF80CC000DFDFF808C0D5
:106E100000DFFEE7BD6F0008D56F00080B4A13685E
:106E200030B5002433B11D89A94203D31C46491B48
:106E30001B68F7E789B20360018113B11D89691AE4
:106E400019810CB1206030BD106030BD901200205F
:106E5000431C11D00B4B984211D80B4B1B684FF4BD
:106E60007A715A1E01FB0020B0FBF3F04FF6FE735F
:106E7000984228BF184670474FF6FF7070474FF68C
:106E8000FE70704700093D0094EC000838B5084CCE
:106E9000257855B900F0E6FD064B1B68FF229A7075
:106EA0002846FFF776FF01232370002038BD00BF7E
:106EB0008C120020D812002010B5EFF305845CB9C5
:106EC000EFF31484E40703D4BDE81040FFF7DEBFFE
:106ED000DFF808C000DF10BD822010BD8D6E0008F5
:106EE00010B588B0EFF3058434BBEFF3148404F0DD
:106EF0000304022C0CD0032C16D0012C1ED008AC9D
:106F000084F309880F4C2478E40705D5022404E0B3
:106F10000C4C2478E4070BD4032484F31488BFF3C7
:106F20004F8FBFF36F8F03E0064C2478E40705D43E
:106F3000DFF814C000DF02E0822000E0FF2008B08C
:106F400010BD00BF92EC0008E57000082DE9F84381
:106F50008946044650B1036843B18588EB1C9BB257
:106F6000062B03D883680BB1C2682AB98020FFF7CB
:106F700010FF0020BDE8F8834363C26300F11006F0
:106F800000F08AFC0B4F00F1FF38291D47F82860FC
:106F9000C9B22268E074C4F82C90304600F08EFC30
:106FA000304600F0A9FC57F82800034A836A5A6368
:106FB000BDE8F88328100020056E000808B500F031
:106FC000D7FC18B10138024B53F8200008BD00BFB0
:106FD0002810002008B5FFF70BFF38B1C07800F08B
:106FE00009FDFF280CBF8120002008BD802008BDBE
:106FF00070B505460C46EFF3058686B9EFF31486A7
:10700000F60706D4074E36781EB9BDE87040FFF784
:107010009DBF28462146DFF810C000DF70BD00206C
:1070200070BD00BF941200204D6F0008830704D18B
:1070300028B10369C1681B6803E0002300E0034630
:107040001946184670470000F8B5134B1C681F46D8
:107050000CB32389013B23812389E3B90F4B2668B5
:107060001D683E6055B12B78012B07D1284600F0F2
:107070005DFA18B12846214600F05CFA6379012BCD
:1070800004D120466189FFF7C9FE01E00123237185
:107090000EB13446E0E7F8BD9012002088120020BF
:1070A00010B504460846DFF80CC000DF84E8030092
:1070B000204610BD2D70000810B5044618B10168B7
:1070C00009B1406820B98020FFF763FE002010BDA1
:1070D0000378002BF7D10431890089B200F0C6F99A
:1070E000606810BD38B5104D2C78D4B921460F48D2
:1070F000FFF7E2FF0E4B214618600E48FFF726FF10
:107100000D4B21461860204600F03AFC0B4A1368EC
:107110009B6A203383F30988146000F011FD01237A
:107120002B70002038BD00BF94120020D801002031
:1071300088120020E001002084120020D8120020D4
:107140002DE9F04F0C4685B08046E8B10378012B5D
:107150001FD10846FFF77CFE02A982B2404600F02C
:1071600093F9012806D10020002C0246034618BFDF
:10717000402003E000200246034610200299044606
:107180000D4616461F4608E080240546064607467B
:1071900003E0002580242E462F462046294632460D
:1071A0003B4605B0BDE8F08F7FB50446164608465D
:1071B000EFF30581A9B101AD00B10AB180230AE066
:1071C0000378012BFAD102A900F0BBF9042801D001
:1071D000019601E01023019395E8070084E8070079
:1071E00005E01146DFF80CC000DF84E80700204608
:1071F00004B070BD417100087FB50A4B03A819683F
:107200004FF0FF32FFF7D0FF039B102BF5D101A801
:107210000499FFF745FF019B002BEED00298984799
:10722000EBE700BF8812002010B5038B42781943AA
:10723000062A04460183438B04D101EA03029A42E1
:1072400019D105E0052A16D111EA030213D04283B1
:1072500021EA03012183204600F0D4F801232046CF
:1072600063700821628BFFF786FD21460248BDE866
:10727000104000F003B810BDB012002030B5027805
:107280008C784368013AD2B22BB19D78A54202D3E3
:1072900018465B68F8E7022A4B60416003D803B1E7
:1072A0009960886030BD00238B6030BD02784368F0
:1072B000013A59684160022A4FF0000204D809B12E
:1072C00088605A609A6000E05A6018467047000073
:1072D000034B5A684260002282605860704700BFCA
:1072E000B0120020114BDA6810B50AB19A8A0CE08E
:1072F00000248A1AC460D86003619A82848210BD17
:10730000002CF5D0A38A1A4423468A42DC68F7D3BE
:10731000C460D860C468036104B12061521A92B29B
:107320008282998A8A1A9A8210BD00BF9812002020
:1073300038B5194DEB68002B2CD0AB8A013BAB82E2
:10734000AA8A002A26D1144BDC681CB3A3683BB17F
:1073500061685960616809B18B6062600023A36055
:107360000E482146FFF78AFFA38AAB826378042B7D
:1073700001BF0B4B1A68E38A9B1808BFA382012345
:107380006370E368EB60002213B103491961E260A6
:107390002261D5E738BD00BF98120020B01200204E
:1073A00014130020836853B9084B5A68824202D1F3
:1073B00042685A6070471346002AF6D17047426807
:1073C0005A60426802B19360704700BFB01200205B
:1073D00038B58468054624B94378012B0ED1084C92
:1073E00003E023780BB9A468FBE72846FFF7DAFF30
:1073F00020462946BDE83840FFF740BF38BD00BFF2
:10740000B0120020036910B573B1C268DA60C268B7
:107410003AB1998A848A2144998213610023C36016
:1074200000E09A820023036110BD000030B50E4BCE
:10743000DD78EFF3108272B69A78AA4207D2013251
:107440009A701A78541CAC4208BF00241C7062B6B3
:10745000AA4204D203EBC2035860996030BD0220F7
:10746000BDE83040FFF793BCA40F00200123103982
:107470000370890800234370837043600381438154
:107480008381C1817047000070B585890446164626
:10749000002D34D043891A1D013350F822200A6090
:1074A000C2899BB29A42438104BF0023438143684F
:1074B000EBB14378022B1AD1FFF7F8FE0021054605
:1074C000FFF750FC2389E9691A1D013344F82210A3
:1074D000E2899BB29A42238108BF0023284608BF55
:1074E0002381FFF78FFF284600F006FA05E0EFF34F
:1074F000108372B6013DA58162B6002070BD82B1D5
:107500004268094B1AB11968FFF7B8FE05E01B681D
:1075100043605A609860012343703046082100F0B0
:107520000DFA012070BD00BFD8120020C2898089E9
:10753000101A704708B5FFF779FFBDE8084000F062
:1075400005B9838910B50446EBB14389043350F87B
:1075500023300B604378022B04D10021FFF766FF34
:1075600000F0F4F8EFF3108372B6A389013BA38116
:1075700062B66389E28901339BB29A42638104D186
:107580000023638101E0184610BD042010BD0000F7
:10759000426870B504460E46002A4AD04578022D4E
:1075A0001CD0032D0AD0012D5DD1FFF77FFE0446CC
:1075B00010213246FFF7DFFB657034E0084600F02B
:1075C00055F8054600284ED02046FFF76FFE2946A5
:1075D0000446FFF7C7FB0123637024E0FFF766FE54
:1075E00000210546FFF7BEFB2389E9691A1D44F80F
:1075F0002210EFF3108272B6A2890132A28162B624
:10760000E28901339BB29A42238104BF0023238184
:10761000012328466B70FFF7F5FE13482946BDE8A5
:107620007040FFF72BBE2046FFF7ECFE0E482146C8
:10763000F5E78189C089814210D223891D1D44F854
:107640002560EFF3108572B60131A18162B6013376
:107650009BB2834214BF2381228170BD0320BDE809
:107660007040FFF794BB70BDB0120020EFF31083A1
:1076700072B6026803F001030AB11168016003B930
:1076800062B61046704781420DD3436899420AD2D0
:10769000EFF3108372B602680A60016013F0010014
:1076A00003D162B670470120704700207047000088
:1076B000034B00221A60034A1268DA80704700BF49
:1076C000C8120020A0EC000808B5104B10485A68FA
:1076D000104B196891421FBF1A60DA8802F1FF311E
:1076E00002681CBF52189A809A8803889A420BD16C
:1076F000084B064800221A60FFF7D8FDBDE8084095
:1077000001460248FFF7BABD08BD00BFB012002015
:1077100014130020C8120020426810B57AB1FFF798
:10772000C5FD0446FFF76EFE012161702046FFF79C
:1077300019FB21460448BDE81040FFF79FBD428871
:107740000132428010BD00BFB0120020054B1B78F3
:1077500023B9054B4FF080521A607047034B01224A
:107760001A707047D512002004ED00E0D4120020FA
:1077700038B5184B184D186801234370FFF7A8FD62
:107780006C78AA78144BEAB103EBC403586802780A
:107790001AB91989FFF748FD07E0012A03D1996852
:1077A000FFF7F6FE01E0FFF7B7FFEB7801349C42EC
:1077B00008BF0024EFF3108372B6AB78013BAB70C7
:1077C00062B6DEE75C700548FFF770FDBDE8384043
:1077D00000F08AB8D8120020A40F0020B0120020B8
:1077E000084B1A68084B1A6000225A60072243F8B7
:1077F000042C064A136843F07F4313604FF0FF30B8
:10780000704700BF9CEC000814E000E020ED00E0B1
:107810007047000008B50B4B186801234370FFF751
:1078200057FDFFF751FF084A136801331360FFF754
:107830007FFDFFF709FC0548FFF738FDBDE808406C
:1078400000F052B8D812002014130020B01200200B
:10785000084B1B68DA78012A0AD0DA6A9B6A9A42D6
:1078600003D81268044B9A4202D00120FFF78FBA66
:10787000704700BFD8120020A52E5AE208B5044870
:10788000FFF714FD034B58600223437008BD00BF8F
:10789000B0120020D8120020064B1A88064B012097
:1078A000904204D853F8041F11B10130F8E70020CA
:1078B000704700BF90EC00082410002030B5002471
:1078C000012504704570817044608460C460046167
:1078D0008482C4820483448380F820401146BDE83A
:1078E0003040FFF719BA0000024B58600223437082
:1078F000704700BFD812002070B5044618B9BDE823
:107900007040FFF7BBBF0B4DA278286883789A427E
:107910004FF0010607D9FFF7DBFC2B685E700223EE
:107920006C60637070BD667021460348BDE87040AE
:10793000FFF7A4BCD8120020B012002038B50D46C5
:10794000014678B14FF6FF739842074C02D0206889
:10795000FFF7C8FC236805485D70FFF7A7FC02230A
:107960006060437038BD00BFD8120020B012002004
:10797000024B186800B1C078704700BFD8120020D1
:1079800010B588B9174B1B689970174843689B78E6
:107990008B4222D9134C2168FFF770FC2368012227
:1079A0005A70FFF76BFF18E0104B1B88984216D8EF
:1079B00001380F4B53F820408CB10A4BA1701B6863
:1079C0009C42E2D02046FFF703FD6378012B04D1EF
:1079D0000548FFF76BFCFFF78FFF002010BDFF206D
:1079E00010BD00BFD8120020B012002090EC00089B
:1079F0002810002070B5184D18B12B68DB7898421C
:107A000013D12E680024747000F0BBF8B062FFF749
:107A10001FFF2A681149D3782C60013B41F82340AD
:107A2000D462FFF72BFF204670BD0D4B1B88984298
:107A30000FD8441E094E56F8245055B12846FFF77A
:107A4000B1FC2846FFF7DEFC002046F82400E8627F
:107A500070BDFF2070BD00BFD8120020281000208C
:107A600090EC000810B5284B1A880023934205D2E9
:107A70002649002041F823000133F7E7244C254A2A
:107A8000FF23E370244B1B8863622046234BE36291
:107A90000021FFF713FF224A0023042111705360D5
:107AA000204A1170D360136193821F4A146002222E
:107AB00062701E4A137053701D4B1B78D370FFF712
:107AC000F7FD1C4B1A6842F47F021A601B681B0208
:107AD00003F07F43DB43B3FA83F3174A1748126876
:107AE000DBB2C3F10803C2F302229A42A8BF531CBF
:107AF0006FF08071026801FA03F303F07F4122F016
:107B00007F430B43036010BD90EC00082810002059
:107B1000E01200208D6D000898EC00088410002011
:107B2000B012002098120020D8120020A40F0020CC
:107B30009AEC000820ED00E00CED00E01CED00E008
:107B400008B5FFF74DFE0C4B0028186012DB00F162
:107B5000604000F56440FF2202701A6853119B00D8
:107B600003F1604303F5614302F01F02012101FAB2
:107B700002F21A6008BD00BFD012002080F309880D
:107B80007047EFF309807047684680F309885548CD
:107B90000078C00714BF0220032080F314887047C8
:107BA000DFF844C1EFF305831B0618BF6047EFF30E
:107BB0001483DB0708BF604700DF7047DFF82CC184
:107BC000EFF305831B0618BF6047EFF31483DB0751
:107BD00008BF604700DF7047EFF30980816911F843
:107BE000021C99BB90E80F1010B5E047BDE81040AB
:107BF000EFF3098C8CE807003D4B93E806009142B7
:107C000008BF704781B11EF0100F06BF2CED108A1F
:107C10000120002081F820002CE9F00FC1F828C0D5
:107C20000CB4FFF715FE0CBC1A60D2F828C0BCE8F3
:107C3000F00F92F8200000281ABFBCEC108A6FF0F9
:107C4000120E6FF0020E8CF30988704710B5294AA6
:107C50001268914209D8284C54F8214090E80F103E
:107C6000A047EFF3098C8CE80F0010BD10B5FFF7AB
:107C70007FFDBDE810401E4B93E80600914208BF0F
:107C80007047EFF3098C1EF0100F06BF2CED108A21
:107C90000120002081F820002CE9F00FC1F828C055
:107CA0000CB4FFF7D5FD0CBC1A60D2F828C0BCE8B4
:107CB000F00F92F8200000281ABFBCEC108A6FF079
:107CC000120E6FF0020E8CF30988704710B5FFF7A3
:107CD000A1FDFFF7CEBF10B5FFF79AFDFFF79AFDA4
:107CE000FFF7C7BF92EC00086D76000887760008A2
:107CF000D812002000000000FCFFFFFF38B514225E
:107D000004460D46002101F02EF920462946FEF7D3
:107D1000F9FA204638BD000010B50446FEF7D6FF3C
:107D20002046044B40F8143B0021FEF7B2FC2046ED
:107D300010BD00BF68EC00082DE9F04FDFF82C9172
:107D4000DFF82C81D9F80C30B9F804201A803B4FA9
:107D5000D8F80C30B8F804201A80394EFB68BA887D
:107D60001A80384DF368B2881A80374CEB68AA88BD
:107D70001A80E368A2881A8091B03448FEF7A0FB0D
:107D80003348FDF723FD0C903248FDF71FFD0F909F
:107D90003148FDF71BFD0B903048FDF717FD0E90A5
:107DA0002F48FDF713FD83462E48FDF70FFD0C9974
:107DB0008246084606F0CCF8DDF83CC002460B4689
:107DC0006046CDE90C2306F0C3F8CDE900010B981D
:107DD00006F0BEF8CDE902010E9806F0B9F8CDE93B
:107DE0000401584606F0B4F8CDE90601504606F005
:107DF000AFF8DDE90C23CDE9080100201A4900F0B5
:107E0000E3FBD9F81030B9F804201A80D8F8103004
:107E1000B8F804201A803B69BA881A803369B2889E
:107E20001A802B69AA881A802369A2881A804FF0C9
:107E30007C5011B0BDE8F04FFEF742BBC0150020EA
:107E4000FC130020D4140020E81300206F12033B21
:107E50000015002018130020B81500200815002078
:107E600028150020E8150020D8EC0008D4150020C3
:107E70003015002070B500F091FB1F481F49204AC3
:107E8000204C214E214D00F056F94FF07A521A48FD
:107E90001F4900F083F91848012100F09BFA1D49A1
:107EA000154800F0A4FA00F02DFBE368A2881A80C0
:107EB0001948FEF705FB2369A2881A80022017499A
:107EC000174C00F081FBF368B2881A80EB68AA882F
:107ED0001A80E368A2881A801248FEF7F1FA336923
:107EE000B2881A802B69AA881A802369A2881A800E
:107EF000FFF722FFFCE700BF7C1400200000C8C38E
:107F00000000C843401400204C150020F01500204C
:107F1000000080BE0000C842CDCC4C3D0AED0008F8
:107F200004160020CDCCCC3D73B54D4C4D4D009486
:107F30002946224623464C484C4E00F0C9F92346B8
:107F40002946224600944A484A4D00F0C1F94A4861
:107F500000F08AFB27212622484800F0C5F8292195
:107F60002822474800F0C0F8464B4748002200242A
:107F700015215C60DC601A615A61FFF7BFFE2D219C
:107F80004248FFF7BBFE2E214148FFF7B7FE2F21E5
:107F90004048FFF7B3FE13213F48FFF7AFFE322101
:107FA0003E48FFF7ABFE2B213D48FFF7A7FE2C21F3
:107FB0003C48FFF7A3FE2A213B48FFF79FFE142110
:107FC0003A48FFF79BFE214639483A4CFDF7C4FB7F
:107FD00039480121FDF7C0FB38482321FDF7BCFBE0
:107FE00037480221FDF7B8FB36482221FDF7B4FBE4
:107FF00035480321FDF7B0FB28460A21FEF77CFB3C
:10800000224628463149324D00F05EFB314821219D
:10801000FDF7A2FB30482021FDF79EFB11212F48E0
:10802000FDF79AFB3046FFF777FE30462C4E294687
:10803000224600F049FB3046FFF76EFE3046294EDF
:108040002946224600F040FB3046FFF765FE3046E9
:108050002946224602B0BDE8704000F035BB00BFA3
:108060000AD7233C0AD7A33B7C14002058130020D6
:10807000601500208813002054140020F014002004
:108080004415002010150020401400204C1500203D
:10809000F015002004160020D41500203015002013
:1080A000C0150020FC130020D4140020E813002089
:1080B000001500208801002018130020B8150020AA
:1080C0000815002028150020E8150020B9660008D2
:1080D000996C000850130020F8140020E8140020C8
:1080E0001014002020130020F8B504461420164672
:1080F0000F4600F0CDFA39460546FDF7F7FD25603D
:10810000142000F0C5FA31460546FDF7EFFD656025
:1081100020680021FDF786FE002560680021FDF73C
:1081200081FE20682946FDF73BFD60682946FDF782
:1081300037FD2046F8BD06EE101A06EE902AB4EE82
:10814000E66AF1EE10FA28DA36EEC65A90ED0E7AAB
:10815000D0ED097AD0ED125A85EE077A67EE277ACC
:1081600025EE877AC0ED097A80ED127AB7EE007AB3
:10817000F4EEC77AF1EE10FA02DD80ED097A06E03E
:10818000F5EEC07AF1EE10FA44BF0023436280EDB1
:108190000C6AC0ED0D6A80ED0E5A704706EE901A1B
:1081A00007EE102AF4EEC76AF1EE10FA24DA77EE41
:1081B000665AD0ED117A90ED0B6AC5EEA77A67EE9C
:1081C000867AB7EE006AF4EEC67AF1EE10FA02DDB6
:1081D00080ED0B6A0AE0F5EEC07A9FED086AF1EED9
:1081E00010FA48BFF0EE467AC0ED0B7AC0ED0F6A88
:1081F00080ED107AC0ED115A704700BF00000000FA
:10820000D0B52DED028B08EE901AF5EE408AF1EE16
:1082100010FA044607EE902A08EE103A51D0F5EE17
:10822000C07AF1EE10FA4CD4B5EEC08AF1EE10FA35
:1082300047D4F5EE407AF1EE10FA21616261A36154
:1082400018D0104605F084FE02460B4600201E4959
:1082500005F0FCFF0646206D0F4605F079FE02464C
:108260000B463046394605F0C7FE06F0A7F907EE83
:10827000100A01E09FED157A6378C3B1B5EE407A3C
:10828000F1EE10FA1FBFD4ED026AD4ED017A67EE69
:10829000A67A68EE876A0BBF0023C7EEA67AA364AE
:1082A000D4ED126A1CBF66EEA77AC4ED127AD4ED43
:1082B000147AC4ED018A88EE278A84ED027A84ED6F
:1082C000038ABDEC028BD0BD0000F03F000000002F
:1082D00038B50446DFED2D7AD4ED0E6A94ED097AB7
:1082E00094ED126AC7EEA66A002020706070002527
:1082F00026EE877A66EE266A84ED097AC4ED126A64
:10830000F7EE006AB4EEE67AF1EE10FA02DDC4EDA3
:10831000096A05E0B5EEC07AF1EE10FA48BF656271
:1083200094ED117A94ED0B6A256387EE877AC4ED9C
:108330000D7A27EE067AC4ED0E7AB4EEE67AF1EE07
:1083400010FA03DD4FF07E50E0620AE0B5EEC07A2D
:10835000DFED0F6AF1EE10FA48BFB0EE667A84EDF9
:108360000B7A04982065E5632046C4ED107AC4EDCD
:10837000117AFFF745FFE56125626562A562E56256
:10838000A564E5646565204638BD00BF33335340BE
:10839000000000000378D0ED0F7A90ED117A13B150
:1083A000D0ED136A01E0D0ED156A76EEE77A00238E
:1083B000C7EE877A836490ED0C7AC0ED0B7AD0ED2E
:1083C000087A77EEC77A90ED0E7AC7EE877AC0ED1D
:1083D000097A704738B505460C4619B143780BB990
:1083E000FFF7D8FF003418BF01246C7038BDC1619D
:1083F0007047000030B5134B134D00248DB085E855
:1084000018004FF6FF730F22EB6003A901232846E3
:1084100003930593079209930B92AC602C6104942B
:10842000069408940A94FCF7E1FD01A928460194FA
:108430000294FCF714FF28462146FCF724FD0DB0FA
:1084400030BD00BF000400401816002030B5134BAB
:10845000134D00248DB085E818004FF6FF730F22EE
:10846000EB6003A901232846039305930792099320
:108470000B92AC602C610494069408940A94FCF767
:10848000B5FD01A9284601940294FCF7E8FE2846B0
:108490002146FCF7F8FC0DB030BD00BF00080040DD
:1084A00054160020F0B5144C1448236C43F002031A
:1084B0002364236B87B043F0010323630225C027A5
:1084C000032601A901970295039504960595FCF7EB
:1084D0006BF8236C0A4843F004032364236B2B439B
:1084E000236301A901970295039504960595FCF76E
:1084F0005BF807B0F0BD00BF00380240000002404A
:108500000004024008B5FFF7CDFFFFF773FFBDE899
:108510000840FFF79BBF10B50446207820B103F058
:1085200091F804F8010BF8E710BD000008B51449F4
:1085300014484FF48072FEF775FB1148FFF7EBFF0C
:108540000F48114902F005F938B90E480F49FEF7F6
:1085500077FBBDE80840FCF717B809480C4902F062
:10856000F8F828B907480B49BDE80840FEF768BB92
:1085700004480949024ABDE80840FEF761BB00BF54
:1085800004170020EC16002022ED00082AED000858
:108590003BED000843ED000854ED000810B5074C12
:1085A0004FF461212046FEF7B3FA054B054900223E
:1085B0002046BDE810401A70FEF7B2BA90160020AF
:1085C000041800202D8500080EB4144B1B7803B549
:1085D000F3B9012804D0022806D11148114901E05D
:1085E0000F481149FEF72CFB04AA03990F4801928A
:1085F00003F088F80E490D4A0948FEF721FB0848A8
:108600000C49FEF71DFB0C4B1B68986800F09EF9A7
:1086100002B05DF804EB03B0704700BF04180020FF
:10862000EC16002079ED000871ED00080518002017
:1086300081ED000884ED00088402002010B5074C8D
:108640001A2120461B220023FEF71AFA204604496D
:10865000044ABDE8104000F037B800BF9016002073
:108660002D6A000888010020064A0260064A42601E
:10867000064A82600022C26002618261C2610262B7
:10868000426270476F12833AA69B443B8FC2F53C0F
:1086900010B5002814BF04460124204600F01EFC3B
:1086A00030B900F009F808B900F013F88047F4E792
:1086B00010BD00F01BBC0000024B1868BFF35F8FB9
:1086C000704700BF0819002003460846194600F00D
:1086D0000DB808B5062001F08DFF0120FEF782F9E4
:1086E000014600200246034603F0ECB838B50546C3
:1086F00004480C46134620B102202946224603F0C6
:10870000E1F838BDC5B80008014B1868704700BFD4
:108710008402002008B5074B044613B1002103F082
:108720002DF9054B1868836A03B198472046FEF778
:1087300059F900BF7DB90008F0ED000870B5054695
:108740000C4609B9002070BD18B183690BB900F05F
:10875000BFF9204B9C4201D16C6808E01E4B9C4243
:1087600001D1AC6803E01D4B9C4208BFEC68B4F932
:108770000C30002BE6D02846214600F039F8236B58
:10878000064633B12846216A98470028B8BF4FF003
:10879000FF36A3891B0603D52846216900F0ECFBB0
:1087A000616B41B104F14403994202D0284600F0C4
:1087B000E3FB00236363A16C21B1284600F0DCFBDE
:1087C0000023A36400F0EEF90023A38100F0EBF98D
:1087D000304670BD8CED0008ACED0008CCED000813
:1087E000024B01461868FFF7A9BF00BF84020020B2
:1087F0008A892DE9F041054610070C4657D44B688D
:10880000002B02DC0B6C002B18DDE66AB6B102F41B
:108810008052002392B22F682B600AB1626D10E083
:10882000216A28460123B047411C024609D12B6822
:108830003BB11D2B01D0162B47D12F600020BDE886
:10884000F081A3895B0705D56368D21A636B0BB10E
:10885000236CD21AE66A216A00232846B047461CD8
:10886000A38905D12A681AB11D2A01D0162A19D167
:1088700000226260D9042269226004D5421C01D121
:108880002B6803B96065616B2F600029D6D004F1B5
:108890004403994202D0284600F06EFB002060633A
:1088A000BDE8F08143F04003A381BDE8F0810F698A
:1088B000002FC3D093070E6808BF4B690F6018BF25
:1088C0000023C7EB06088B6012E0A38943F0400346
:1088D000A3814FF0FF30BDE8F0812846216AA66AE7
:1088E0003A464346B0470028EFDD0744C0EB08088E
:1088F000B8F1000FF1DCA1E738B50B6905460C466D
:10890000DBB118B183690BB900F0E2F80C4B9C4263
:1089100001D16C6808E00B4B9C4201D1AC6803E0CC
:10892000094B9C4208BFEC68B4F90C302BB12846C7
:108930002146BDE83840FFF75BBF002038BD00BFCF
:108940008CED0008ACED0008CCED0008014620B924
:10895000044B0549186800F02FBA044B1868FFF75C
:10896000CBBF00BFF0ED0008F988000884020020AA
:10897000012A2DE9F04781460E4690461C4602DC4E
:108980000020BDE8F08718B183690BB900F0A0F8AA
:10899000254B9C4202D1D9F804400AE0234B9C426B
:1089A00002D1D9F8084004E0214B9C4208BFD9F815
:1089B0000C4008F1FF383746656845B948462146FE
:1089C00001F06AFC10B1B74229D1D9E76568D4F843
:1089D00000A0454528BF454650460A212A4600F0DA
:1089E0008DFA636868B10130CAEB00055B1B84E84F
:1089F0000900514638462A4600F08FFA00237B557D
:108A00000FE05B1B636023682B44384623605146AC
:108A10002A4600F082FAB8EB05082F44CCD1002397
:108A20003B703046BDE8F0878CED0008ACED0008E7
:108A3000CCED000830B51346044A05460C461068D4
:108A400029462246BDE83040FFF792BF840200204D
:108A5000014900F0B1B900BFF9880008002310B542
:108A6000044603604360836081814366C281036181
:108A70004361836119465C30082200F074FA054BAB
:108A80006362054BA362054BE362054B24622363DB
:108A900010BD00BFC9A60008EFA6000827A7000860
:108AA0004BA7000870B568234D1E5D430E4605F1C7
:108AB000740100F0A5FA044640B1002180E84200AC
:108AC0000C30A06005F1680200F04DFA204670BD40
:108AD000836910B5044633BB8364C3640365124BDA
:108AE000124A1B688262984204BF0123836100F02E
:108AF0001FF86060204600F01BF8A060204600F0E0
:108B000017F80421E06000226068FFF7A7FFA06863
:108B100009210122FFF7A2FFE06812210222FFF7DC
:108B20009DFF0123A36110BDF0ED0008518A0008EC
:108B3000F8B51B4B1E68B369074613B93046FFF7FB
:108B4000C7FF4836B4687368013B04D4B4F90C50CD
:108B500075B16834F8E733682BB938460421FFF75C
:108B6000A1FF306008B13668ECE70C233B60F8BD2C
:108B70004FF6FF73E3810123A38165662560A5603D
:108B8000656025616561A56104F15C0029460822E4
:108B900000F0E9F96563A563A564E5642046F8BDC6
:108BA000F0ED00087047704738B5074B074CE41AE2
:108BB000A4101D4624B1013C55F824309847F9E72C
:108BC000BDE8384005F060BDD0020020D40200208E
:108BD000F7B50F46114601AA054603F09DFD06466E
:108BE00008B9002029E02846FFF7A2FF0446002824
:108BF000F7D028463946019A4FF4DB7301F030FB79
:108C0000002806DA0025FFF7CDFFA581FFF7CBFF8F
:108C1000E7E70B4B63620B4BA3620B4BE3620B4B1F
:108C20002363F305E081A681246205D52846214609
:108C30000022022300F016F8204603B0F0BD00BF6A
:108C4000C9A60008EFA6000827A700084BA7000840
:108C50000A460349034608681946FFF7B9BF00BF33
:108C60008402002000F000B82DE9F8430C4690463D
:108C70001E46054618B183690BB9FFF729FF3D4B26
:108C80009C4201D16C6808E03B4B9C4201D1AC682E
:108C900003E03A4B9C4208BFEC68A38903F4847359
:108CA000B3F5847F03D128462146FFF725FEE76A06
:108CB0000FB91D232BE0012E04D0022E2BD056B36A
:108CC000162324E028462146FFF716FEA28902F467
:108CD000805292B20AB1606D05E0216A284633469F
:108CE000B847411C14D0A3895A0706D56368C01A37
:108CF000636B4BB1236CC01A06E01B0704D52368D5
:108D000013B122699B1A18448044002603E02B60AB
:108D10004FF0FF392BE023691BB92846214600F0AC
:108D20008FF828462146FFF7E7FD81460028EFD15E
:108D30002846216A42463346B8470130E8D0616B85
:108D400041B104F14403994202D0284600F014F9DD
:108D50000023636323692360A389002123F4026352
:108D60006160A38104F15C00082200F0FCF8484631
:108D7000BDE8F8838CED0008ACED0008CCED0008F0
:108D80002DE9F041884600F1480400268CB1A56821
:108D90006768013F0BD4AB89012B06D9B5F90E30BA
:108DA000013302D02846C04706436835F1E72468FE
:108DB000ECE73046BDE8F0812DE9F843804689466E
:108DC00000F14804002694B1A5686768013F0CD4FF
:108DD000AB89012B07D9B5F90E30013303D04046DA
:108DE0002946C84706436835F0E72468EBE7304674
:108DF000BDE8F88370B50E4B0E4CE41AA4100025A4
:108E00001E46A54204D056F8253098470135F8E7AC
:108E100005F034FC084C094BE41AA41000251E464A
:108E2000A54204D056F8253098470135F8E770BDC3
:108E3000C4020020C4020020D0020020C40200208E
:108E4000F0B58B899D0791B006460C4626D4B1F942
:108E50000E10002909DAA38913F0800F4FF00005E6
:108E600014BF40274FF480670DE001AA03F08CFC8B
:108E70000028F0DB029D05F47045A5F500514D4238
:108E80004D414FF480673046394600F0B9F860B97B
:108E9000A3899A051DD443F00203A38104F147037B
:108EA000236023610123636113E00B4BB362A38949
:108EB000206043F08003A381206167614DB130469B
:108EC000B4F90E1003F07EFF18B1A38943F001033B
:108ED000A38111B0F0BD00BF518A0008024B0146CA
:108EE000186800F08DB800BF84020020024B0146D4
:108EF000186800F041B800BF8402002010B5C9B264
:108F000002449042034606D01C788C4200F10100D6
:108F1000F7D1184610BD002010BD10B5431E0A44FD
:108F2000914204D011F8014B03F8014FF8E710BD4E
:108F3000814210B501EB020301D3421E0BE09842BF
:108F4000FBD28118D21AD34204D013F8014D01F894
:108F5000014DF8E710BD994204D011F8014B02F819
:108F6000014FF8E710BD02440346934202D003F8D4
:108F7000011BFAE77047000030B500293DD051F8D9
:108F8000042C0B1F1D49002AB8BF9B180A680C4609
:108F900012B95A600B6030BD93420DD2196858184F
:108FA000904201BF5A5852181A6042685A602360B2
:108FB00030BD994203D80A4651680029F9D1146896
:108FC00015199D420AD11B682344D01888421360AA
:108FD00013D10868034413604B680DE002D90C23D9
:108FE000036030BD1C681819884204BF08684968CE
:108FF000596004BF00191860536030BD101900207B
:1090000070B5CC1C24F0030408340C2C38BF0C249D
:10901000002C064603DA0C233360002070BD8C421E
:10902000F9D3204A136810461946A1B10A68121BE9
:109030000ED40B2A03D90A608B188C501FE08B4288
:109040000DBF5A684A685A60026018BF0B4616E0A6
:109050000B464968E9E7144D2B681BB9304601F00F
:10906000CBF928603046214601F0C6F9421C034680
:10907000D1D0C51C25F0030585420AD11C6003F13F
:109080000B001A1D20F00700821A0AD05142995095
:1090900070BD3046E91A01F0AFF90130BBD02B4664
:1090A000ECE770BD101900200C1900209368013BFB
:1090B000002B10B5936009DA9469A34202DBCBB2AE
:1090C0000A2B03D1BDE8104002F02ABB1368581CDC
:1090D00010601970C8B210BDF8B506460F461446A8
:1090E000D518AC4208D0304614F8011B3A46FFF7B9
:1090F000DDFF431CF5D100E00020F8BD2DE9F04371
:109100009DB00D4690460393064618B183690BB98E
:10911000FFF7DEFC754B9D4201D1756808E0744B8A
:109120009D4201D1B56803E0724B9D4208BFF568CE
:10913000AB891C070AD52B6943B10023099320236F
:109140008DF8293030238DF82A3041E03046294609
:1091500002F04CFB0028F0D04FF0FF30C2E0039A41
:10916000111D12680391002ABBBF524243F0020353
:1091700007920792B8BF0493013423782E2B7BD03B
:10918000DFF88081217840460322FFF7B7FE38B12F
:10919000049AC8EB00004023834013430493013436
:1091A000217855488DF82810062204F10108FFF7B0
:1091B000A5FE002800F08580504B002B78D1039B42
:1091C000073323F0070308330393099B3B440993B8
:1091D00043461C4613F8012B1AB9B4EB08090ED00C
:1091E00002E0252AF5D1F8E73046294642464B46AB
:1091F000FFF772FF013070D0099B4B44099323782D
:10920000002B6AD000234FF0FF320493079305929E
:1092100006938DF853301A9304F101084446DFF8A1
:10922000E890217848460522FFF768FE08F101081A
:10923000049B30B1C9EB0000012282401343049328
:10924000ECE7D80644BF20228DF85320190744BF0D
:109250002B228DF8532022782A2A80D00799234682
:109260001C4601332278303A092A03D80A2000FB31
:109270000121F5E7079180E763782A2B0AD1039B48
:109280001A1D1B680392002BB8BF4FF0FF33023446
:10929000059375E7611C00220C4601312378303BB1
:1092A000092B03D80A2000FB0232F5E7059267E795
:1092B00003AB0093304604A92A46114B00F0C4F8D2
:1092C00007E003AB0093304604A92A460C4B00F09C
:1092D00075FB421C07467FF478AFAB895B063FF510
:1092E0003BAF09981DB0BDE8F08300BF8CED0008CE
:1092F000ACED0008CCED0008FEED00084994000834
:10930000D9900008FAED0008F4ED000830B51346D6
:10931000044A05460C46106829462246BDE83040FE
:10932000FFF7ECBE840200202DE9F04788B0002B47
:10933000149F1299109EDDF84CA01D46B8BF05F190
:10934000004327F02007B6BF1D4600232D231446F7
:10935000B8BF1446462F0B7003D0452F03D10136FA
:1093600001E0032300E002238DE8480406AB0393E9
:1093700007AB049322462B4602F00AFC472F804697
:1093800002D1119BDB0726D5462F08EB060911D128
:1093900098F80030302B0AD12046294600220023BD
:1093A00005F092F818B9C6F10106CAF80060DAF8BB
:1093B00000309944204629460022002305F084F815
:1093C00008B1CDF81C90079B4B4504D25A1C07925C
:1093D00030221A70F7E7079B159AC8EB0303404643
:1093E000136008B0BDE8F08773B503460029B8BF25
:1093F000494203F8022BB4BF2D222B2209294270C7
:1094000019DD0DF1070426460A2291FBF2F502FB55
:1094100015113031092D04F8011D2946F4DC3031D5
:10942000651E04F8011CB5421A460AD215F8012B34
:1094300003F8012BF7E730241A46214402F8024BC7
:109440005970101A02B070BD2DE9F04F91B08B46E3
:1094500015461E461A9F044603F0C4FCD0F800A02F
:10946000504601F080F900230E933B6809900733C2
:1094700023F00703D3E9000103F108029BF81880E9
:109480003A60CBE9120100F08DFF0128DBE91201FF
:1094900019D10022002305F021F810B12D238BF8FB
:1094A0004330A04BA04FB8F1470F88BF1F4603239E
:1094B000CBF81030DBF8003023F00403CBF8003099
:1094C0004FF00009A1E000F06DFFDBF8003048B973
:1094D000964A974FB8F1470F88BF17460322CBF83B
:1094E0001020E9E7DBF804209BED127B571C8DED83
:1094F0000A7B01D1062209E0B8F1670F02D0B8F16A
:10950000470F05D1002A40F0C7810122CBF8042083
:10951000DBF80420CDF8108043F480638DE80C0064
:10952000CBF800300DF1330302930DAB03930EAB78
:109530000593002306932046DDE90A23FFF7F4FE96
:1095400008F0DF03472B07460AD10D9BD81C03DB2D
:10955000DBF80420934237DDA8F102085FFA88F8AF
:10956000B8F1650F0D9915D8013942460BF150003D
:109570000D91FFF739FF0E9A8318012A8146CBF827
:10958000103003DCDBF80020D10738D50133CBF8ED
:10959000103034E0B8F1660F18D10029DBF8043040
:1095A00009DDCBF810101BB9DBF80020D20721D55C
:1095B00001330B441CE01BB9DBF80020D00701D5B8
:1095C000023315E0012313E04FF067080D9B0E9A5C
:1095D000934207DBDBF80020CBF81030D10709D528
:1095E000013305E0002BD4BFC3F102030123134470
:1095F000CBF810300D9BCBF858304FF000099DF898
:10960000333013B12D238BF8433000962046594652
:109610000FAA2B4600F05CF9013002D14FF0FF3069
:1096200052E1DBF800305A0505D4204629463A4677
:10963000DBF8103008E1B8F1650F40F2D080DBE9CB
:1096400012010022002304F03FFF50B320462946B8
:10965000384A0123B0470130E0D00E9B0D9A9A4260
:1096600009DBDBF80030D80705D4DBF800309F07B2
:1096700000F1108107E1204629465246099BB04778
:109680000130CBD000270E9B013B9F42EDDA2046F4
:1096900029460BF11A020123B0470130BED0013731
:1096A000F1E70D9B002B29DC20462946214A0123A6
:1096B000B0470130B2D00D9B2BB90E9B1BB9DBF824
:1096C0000030D907D1D5204629465246099BB047DC
:1096D0000130A3D04FF000080D9B5B429845204617
:1096E000294608DA0BF11A020123B047013095D060
:1096F00008F10108F0E73A460E9BA5E0DBF8582098
:109700000E9B9A42A8BF1A46002A914602DC4FF0EF
:1097100000081CE0204629463A464B46B047013037
:10972000F5D17BE709EE000805EE000811EE000810
:109730000DEE00085EEE0008204629460BF11A02E5
:109740000123B04701303FF469AF08F10108DBF8AD
:109750005830B9F1000FACBFC9EB03021A4690456F
:10976000EADB07EB03080D9A0E9B9A4210DBDBF84D
:109770000030DA070CD40E9A1744C8EB07030D9F8C
:10978000D21B9342A8BF1346002B1F4608DC0EE0F5
:10979000204629465246099BB0470130EBD13DE7B0
:1097A000204629464246B04701303FF437AF4FF0DC
:1097B00000080AE0204629460BF11A020123B047AF
:1097C00001303FF42BAF08F101080D9A0E9B002FDA
:1097D000A3EB0203A8BFDB1B9845EBDB45E70E9A22
:1097E000012A01DCDB0736D5204629463A4601230B
:1097F000B04701303FF412AF204629465246099B3C
:10980000B04701303FF40AAFDBE912010022002328
:1098100004F05AFEE8B90E9B204629467A1C013B0B
:109820001DE0204629460BF11A020123B047013002
:109830003FF4F4AE01370E9B013B9F42F1DB204623
:1098400029460BF150024B46B04701307FF40DAF73
:10985000E4E60027EFE7204629463A460123B047D1
:109860000130ECD1DAE6204629460BF1190201233A
:10987000B04701303FF4D2AE0137DBF80C300F9A1D
:109880009B1A9F42EFDBDBF80C000F9B9842B8BF9E
:10989000184619E00027F0E743F480638DE80C00D8
:1098A000CBF800300DF1330302930DAB03930EABF5
:1098B000059300230693CDF810802046DDE90A23A6
:1098C000FFF732FD074640E611B0BDE8F08F00BF5C
:1098D0002DE9F84391461F468A680B69DDF8208020
:1098E0009342B8BF1346C9F8003091F843200646AA
:1098F0000C4612B10133C9F800302368990642BF03
:10990000D9F800300233C9F80030256815F0060593
:109910001CD094F843302268003318BF012392060C
:109920001FD5E1185A1C302081F84300224494F8D6
:10993000451082F84310023313E03046394604F1F3
:1099400019020123C047013007D00135E368D9F877
:1099500000209B1A9D42F0DBDBE74FF0FF30BDE8B3
:10996000F8833046394604F14302C0470130F4D051
:109970002268D9F80050E36802F00602042A08BF02
:109980005D1B2269A3680CBF25EAE575002593429B
:10999000C4BF9B1AED184FF00009A9450ADA3046FA
:1099A000394604F11A020123C0470130D5D009F12C
:1099B0000109F2E70020BDE8F88300002DE9FF412E
:1099C0000C461746227E6E2A984606460A9B01F1EF
:1099D000430100F0A98012D8632A23D00AD8002AB4
:1099E00000F0B680582A40F0C58084F84520DFF8A2
:1099F000F8E151E0642A1ED0692A1CD0BAE0732A2B
:109A000000F0AA8009D86F2A2BD0702A40F0B280CB
:109A1000226842F02002226039E0752A21D0782A9B
:109A200035D0A7E01A68111D1960136884F8423018
:109A300004F14205A2E020681A6810F0800F03D0FC
:109A4000101D1860136805E04506F9D5101D186053
:109A5000B2F90030002B3BDA2D225B4284F8432020
:109A600036E020681A6810F0800F03D0101D1860CF
:109A7000136804E04006F9D5101D18601388227E93
:109A8000DFF864E16F2A0CBF08220A221CE078226A
:109A9000DFF858E184F845202268186812F0800F3A
:109AA00000F104051D6001D0036802E05506FBD5F6
:109AB0000388D00744BF42F0200222601BB922680D
:109AC00022F0200222601022002084F8430002E0ED
:109AD000DFF814E10A226568A560002DA2BF2068A6
